:100000003EC058C057C056C055C054C053C030C47D
:1000100051C015C84FC04EC04DC04120000042C85D
:100020000000461C40004CBEBC205A0E1BCA749DEA
:10003000C5AE3DCCCCCD3C23D70A38D1B717322B37
:10004000CC7724E695950A4FB11F313233343536DB
:1000500037383908300A302E515A31205B5D324131
:1000600042433344454634474849354A4B4C364D64
:100070004E4F37505253385455563957585911240A
:100080001FBECFE5D2E0DEBFCDBF10E0A0E6B0E0FE
:10009000E2E9F6E103C0C89531960D92AC3EB10796
:1000A000D1F711E0ACEEB0E001C01D92A936B10766
:1000B000E1F701C0A5CFC4E5D2E0DEBFCDBFF89423
:1000C000C3D3CFD35BD4789475D77CD6CAD51FD68B
:1000D00081E690E038D684EF91E026D418D68CE003
:1000E00090E072D781E790E02ED61CD78983898172
:1000F000282F33272A873B878A859B858333910561
:10010000A1F02A853B852433310534F48A859B850B
:100110008133910541F06AC02A853B85243331053E
:1001200009F463C063C064D061C0F1D582E990E096
:100130000AD6F5D567D360E485E091E0FCD660E0AF
:1001400070E085E091E024D96A837B838C839D8372
:1001500061E082E0ECD587E990E0F5D553D360E427
:1001600085E091E0E8D660E070E085E091E010D9AC
:100170006E837F8388879987D6D581E01FD426D464
:100180006E817F81888599857AD8B92FA82F972F7E
:10019000862F082F192F6A817B818C819D816FD8D2
:1001A000B92FA82F972F862F712F602F6DD410D4C1
:1001B0006A817B818C819D8162D8B92FA82F972F6E
:1001C000862F909300018093FF006E817F81888548
:1001D000998555D8B92FA82F972F862F9093FE0079
:1001E0008093FD0080E0EAD301C0FDD090D57ACFA6
:1001F000CF93DF93CDB7DEB726970FB6F894DEBF67
:100200000FBECDBF84D58CE990E09DD5B7D381E0FA
:10021000D5D319821A828981883009F4D9C082D64F
:1002200089838981282F33272D833E838D819E8169
:100230008533910509F49AC02D813E81263331051D
:1002400064F48D819E818233910599F02D813E81E8
:100250002433310509F44CC0A4C08D819E818633BE
:10026000910509F46FC02D813E812833310559F184
:1002700098C08091FD009091FE00AA2797FDA0955F
:10028000BA2F682F792F8A2F9B2F16D8B92FA82F16
:10029000972F862F20E030E04AE754E4682F792F2B
:1002A0008A2F9B2F13D888230CF07BC061E080E05D
:1002B00091D38091FD009091FE0001969093FE00F5
:1002C0008093FD006EC08091FD009091FE00181695
:1002D00019060CF066C06FEF80E07CD38091FD00C2
:1002E0009091FE0001979093FE008093FD0059C00D
:1002F0008091FD009091FE00AA2797FDA095BA2F4E
:10030000682F792F8A2F9B2FD7D7B92FA82F972FF8
:10031000862F2FE73EEC44E954E4682F792F8A2F8B
:100320009B2FD4D788230CF03CC060E081E052D3EF
:100330008091FF00909100010196909300018093BD
:10034000FF002FC08091FF00909100011816190640
:1003500044F560E08FEF3ED38091FF009091000163
:100360000197909300018093FF001BC08A818095C4
:100370008A8360E181E0DBD48A81882329F085EAE1
:1003800090E08B839C8304C027EA30E02B833C837E
:100390008B819C81D8D48A81882311F017D301C026
:1003A00017D361E082E0C3D489EA90E0CCD465E061
:1003B00082E0BDD48091FF0090910001E5D46DE012
:1003C00082E0B5D48091FD009091FE00DDD423CF72
:1003D00080E0F4D226960FB6F894DEBF0FBECDBFF4
:1003E000DF91CF910895CF93DF93CDB7DEB78FD450
:1003F0008AEB90E0A8D485E290E0E6D560E470E076
:1004000085E091E0ECD585E091E090930201809346
:100410000101E0910101F09102018081882309F43A
:1004200007C0B8D5882309F003C00DD0882331F365
:1004300080E0C4D28FE7909132008923809332000C
:10044000DF91CF9108950F931F93CF93DF93CDB793
:10045000DEB72F970FB6F894DEBF0FBECDBF209149
:100460000101309102012B873C87EB85FC8580815F
:100470002B853C852F5F3F4F2B873C878D8761E025
:1004800082E055D489EC90E05ED48091320080689F
:10049000809332003D85332309F4A4C08D858823E1
:1004A00071F09D85903259F4EB85FC8580812B8518
:1004B0003C852F5F3F4F2B873C878D87EFCF8B8508
:1004C0009C859093020180930101ED85FF27E7FD54
:1004D000F095EE87FF872E853F852534310509F499
:1004E0006BC08E859F858634910534F4EE85FF853B
:1004F000E434F10589F065C02E853F852C34310543
:1005000081F08E859F858535910509F05AC060D2AE
:100510008FEC90E018D455C059D288ED90E013D4F8
:1005200050C081E04BD26DD0B92FA82F972F862FC6
:1005300089839A83AB83BC8364D0B92FA82F972F6C
:10054000862F8D839E83AF83B88781EE90E0FBD3A7
:100550006D817E818F81988592D6B92FA82F972F94
:10056000862F082F192F69817A818B819C8187D6EC
:10057000B92FA82F972F862F712F602F85D26981D1
:100580007A818B819C817BD6B92FA82F972F862FBC
:10059000909300018093FF006D817E818F8198850B
:1005A0006ED6B92FA82F972F862F9093FE00809399
:1005B000FD0080E003D205C0E1E0F0E0E987FA87C2
:1005C00013C020910101309102012B873C87EB85FC
:1005D000FC8580812B853C852F5F3F4F2B873C8797
:1005E0008D8758CF19861A8689859A852F960FB6DA
:1005F000F894DEBF0FBECDBFDF91CF911F910F9159
:100600000895EF92FF920F931F93CF93DF93CDB78F
:10061000DEB728970FB6F894DEBF0FBECDBF20918E
:100620000101309102012E833F8319821A8281E0F9
:1006300090E08B839C831D82EE81FF8180812E81DF
:100640003F812F5F3F4F2E833F8388873885332339
:1006500071F04885403259F4EE81FF8180812E810E
:100660003F812F5F3F4F2E833F838887EFCF3885B1
:100670003D3261F481E08D83EE81FF8180812E81A6
:100680003F812F5F3F4F2E833F83888738853033EC
:1006900044F148854A332CF5888580538887298121
:1006A0003A81932F822F880F991F880F991F880FE7
:1006B000991F820F931F280F391FE8858E2F9927C6
:1006C00087FD9095820F931F89839A83EE81FF8126
:1006D00080812E813F812F5F3F4F2E833F8388870C
:1006E000D5CF38853E32D9F5EE81FF8180812E81CC
:1006F0003F812F5F3F4F2E833F838887388530337C
:1007000074F148854A335CF5888580538887298150
:100710003A81932F822F880F991F880F991F880F76
:10072000991F820F931F280F391FE8858E2F992755
:1007300087FD9095820F931F89839A832B813C813B
:10074000932F822F880F991F880F991F880F991F49
:10075000820F931F820F931F8B839C83CFCF8D813A
:10076000882339F089819A81909581959F4F89835B
:100770009A838E819F81019790930201809301015A
:1007800089819A81909304018093030189819A81E0
:10079000AA2797FDA095BA2F682F792F8A2F9B2F14
:1007A0008BD5E62EF72E082F192F8B819C81AA2737
:1007B00097FDA095BA2F682F792F8A2F9B2F7CD574
:1007C000B92FA82F972F862F282F392F4A2F5B2F2D
:1007D000912F802F7F2D6E2D0CD5B92FA82F972FFD
:1007E000862F682F792F8A2F9B2F28960FB6F89483
:1007F000DEBF0FBECDBFDF91CF911F910F91FF9054
:10080000EF900895CF93DF93CDB7DEB721970FB662
:10081000F894DEBF0FBECDBF19828981813458F4B0
:1008200089819927F92FE82FEB5FFE4F108289818C
:100830008F5F8983F2CF21960FB6F894DEBF0FBE8B
:10084000CDBFDF91CF91089582EA8BBB8BEF8ABB3E
:1008500018BA8FEF87BB85BB84BB12BA80EC81BB13
:10086000089582E889BF83E083BF83E882BF08954B
:100870001F920F920FB60F9211242F933F934F9315
:100880005F936F937F938F939F93AF93BF93EF93F8
:10089000FF9383E882BF8091EC009091ED00019678
:1008A0009093ED008093EC008091EE009091EF002A
:1008B00001969093EF008093EE008091F0008F5F9F
:1008C0008093F000843121F41092F00089D23AD064
:1008D0008091EE009091EF00885E9340A1F4109219
:1008E000EF001092EE008091F1008F5F8093F10095
:1008F000989B02C0A89801C0A89A8091F1008C33FF
:1009000011F41092F100FF91EF91BF91AF919F917F
:100910008F917F916F915F914F913F912F910F90A8
:100920000FBE0F901F9018952091EC003091ED00B4
:10093000280F391F8091EC009091ED0082179307EA
:10094000C9F7089580B3992788739070282F392F9D
:100950003595279535952795359527958091F700FD
:10096000281719F02093F70008959091F7008091CF
:10097000F200981711F09093F200089586E08093AA
:10098000F80088EC8093F90008958091F900815077
:100990008093F9009091F80094304CF0882339F45A
:1009A000892F81508093F80084E68093F90080912C
:1009B000F800992787FD9095B7DF0895882319F0EF
:1009C000C69ADC9A0895C698DC980895969A089578
:1009D000969808951F93CF93C82F162F813011F446
:1009E000DB9803C08F3F09F4DB9A113011F4C598EE
:1009F00003C01F3F09F4C59ACC2321F0DF9AC5DF5D
:100A0000DF98C3DF112341F0C79881E090E08CDFCD
:100A1000C79A81E090E088DF2C2F332727FD30959F
:100A20008091F3009091F400820F931F9093F40053
:100A30008093F300212F332727FD30958091F50017
:100A40009091F600820F931F9093F6008093F5002B
:100A5000CF911F91089560E0862FBCDF8FDF8091DA
:100A6000F20081FD08C060E08FEFB4DF8EDF80917F
:100A7000F20081FFF8CF1092F4001092F300109270
:100A8000F6001092F50008958F929F92AF92BF9258
:100A9000CF92DF92EF92FF920F931F93CF93DF934A
:100AA000D92FC82FC62ED72E69DF8091F3009091E1
:100AB000F400EC2EFD2EE81AF90A22F4F094E194E9
:100AC000F108F3948091F5009091F6001D2D0C2D06
:100AD000081B190B1AF4109501951F4F8091F30014
:100AE0009091F400C817D90724F488248A94982C8C
:100AF00003C08824992483948091F5009091F60096
:100B0000C816D90624F4AA24AA94BA2C03C0AA248D
:100B1000BB24A394E016F1063CF1000F111F9F2D9A
:100B20008E2D880F991FC02ED12EC81AD90AD12F09
:100B3000C02FCE19DF091E141F04DCF51C161D067C
:100B400034F4CC0DDD1D6A2D882D44DF05C0C00FA7
:100B5000D11F60E0882D3EDF18DF0894E108F1081E
:100B60001E141F045CF325C0EE0CFF1C912F802F78
:100B7000880F991FCE2CDF2CC81AD90ADF2DCE2D55
:100B8000C01BD10B10161106A4F41C161D0634F45C
:100B9000CC0DDD1D6A2D882D1DDF05C0CE0DDF1D9E
:100BA0006A2D80E017DFF1DE0150104010161106AB
:100BB00064F360E0862F0EDFDF91CF911F910F91DC
:100BC000FF90EF90DF90CF90BF90AF909F908F906D
:100BD0000895D4DE089590E080E08F5F8830E8F3D8
:100BE0009F5F9832C8F3089520E030E080E090E005
:100BF00001968F3F9105E1F3D8F32F5F3F4F2138E6
:100C00003105A0F30895982F907F85B38F70892BBD
:100C100085BB00000000AA9800000000A99A80E0AF
:100C20008F5F8832E8F3A99880E08F5F8832E8F31D
:100C300008951F93182FE7DF812F8295807FE3DFD0
:100C40001F910895AB9800000000F3DF08958068BD
:100C5000F9DFC1DF0895AB9A00000000EADFBBDFD7
:100C6000089515BA8FEF84BB84E690E0BDDF80E382
:100C7000CADF85E090E0B8DF80E3C5DF81E090E087
:100C8000B3DF80E3C0DF80E2BEDF88E2D2DFA3DF34
:100C900088E0CFDFA0DF8CE0CCDF9DDF81E0C9DF23
:100CA00082E090E0A1DF86E0C4DF95DF30D00895D8
:100CB000883071F48091FA00882341F1815080934B
:100CC000FA00C5DF80E2C7DF8091FA00C0DF089537
:100CD0008A3059F48091FA00803428F480E48093BB
:100CE000FA00B5DF089513D00895B5DF8091FA00BA
:100CF0008F5F8093FA00883219F480E48093FA00C1
:100D00008091FA00883611F41092FA00089581E07B
:100D100099DF82E090E068DF1092FA0008958EE09B
:100D200091DF59DF08958CE08DDF55DF0895CF9373
:100D3000C62FC150823008F0C05C8C2F88DFC09372
:100D4000FA00CF9108951F93CF93DF93D92FC82F27
:100D500010E0FD2FEC2FE10FF11D8081A9DF1F5F57
:100D6000212F3327FD2FEC2F01900020E9F7319739
:100D70008E2F9F2F8C1B9D0B01978217930748F78F
:100D8000DF91CF911F910895CF93DF93CDB7DEB759
:100D900025970FB6F894DEBF0FBECDBF4AE050E0F6
:100DA0006C2F7D2F6F5F7F4FDCD18C2F9D2F019695
:100DB000CADF25960FB6F894DEBF0FBECDBFDF9118
:100DC000CF91089598B380EE9823976098BB97B31E
:100DD0009823892F886187BB85E491E069D10895C4
:100DE0001F93CF93E0E037EE28B323238E2F99276C
:100DF000880F991F880F991F880F991F282B28BBD0
:100E000020E02F5F2436E8F326B32770273019F44B
:100E1000EF5FE43048F3E43059F41092FB00809126
:100E2000EB00843608F07BC08F5F8093EB0077C0C7
:100E300022FD02C022E006C021FD02C021E002C066
:100E400020FF20E0FF278E2F9F2F880F991FE80F8C
:100E5000F91FE20FF11DE65BFF4FC895C02D809191
:100E6000FB00882319F4C093FB0059C08091FB005C
:100E7000C81719F0C093FB0052C09091EB00992362
:100E800009F44DC08091FC008C17A1F5923390F5C8
:100E9000C03384F1CA3374F58091EA00843050F590
:100EA0008F5F8093EA00843011F41092EA008C2F57
:100EB0008053E82FFF278E2F9F2F880F991F880FB1
:100EC000991F2091EA00F92FE82FE20FF11DEA5A4D
:100ED000FF4FC895102D68E070E085E491E0EDD0FB
:100EE000812F992787FD9095682F792F85E491E0D0
:100EF000E4D011C08091EA00843010F41092EA002E
:100F0000C093FC008C2F992787FD9095682F792F2F
:100F100085E491E0D2D0C093FB001092EB00CF911A
:100F20001F91089585E491E0E9D08F3FD9F3992787
:100F300087FD90950895EF92FF921F93CF93E82E2F
:100F4000F92E162FC0E0C617D8F4ECDF982F8F5F6C
:100F50008230A0F09D3091F0983031F4CC2371F0C4
:100F6000C150892FA5DE0AC09A3051F0FF2DEE2D19
:100F7000EC0FF11D9083CF5F892F9ADEC11728F304
:100F8000FF2DEE2DEC0FF11D1082CF911F91FF90E0
:100F9000EF900895CF93DF93C0E0D0E085E491E037
:100FA000D3D0882311F4C1E0D0E08C2F9D2FDF91A6
:100FB000CF910895F89483E389B988E98AB9789440
:100FC00087E591E075D008955D9BFECF8CB90895BB
:100FD00087E591E093D08F3FD9F399270895EF9259
:100FE000FF920F931F93CF93E82EF92E062F10E058
:100FF0001617D0F4EDDFC82F8F5F823098F0CD3018
:1010000089F0C83029F4112319F011508C2FDCDF3E
:10101000CA3051F0FF2DEE2DE10FF11DC0831F5F8F
:101020008C2FD2DF101730F3FF2DEE2DE10FF11DC5
:101030001082CF911F910F91FF90EF9008951F9212
:101040000F920FB60F9211242F933F934F935F93FC
:101050006F937F938F939F93AF93BF93EF93FF9380
:101060008CB19927682F792F87E591E026D0FF91E1
:10107000EF91BF91AF919F918F917F916F915F9110
:101080004F913F912F910F900FBE0F901F90189589
:10109000CF93DF93C0E0D0E087E591E055D088237F
:1010A00011F4C1E0D0E08C2F9D2FDF91CF910895F6
:1010B000F92FE82F108A118A0895B92FA82FF92F38
:1010C000E82F2089822F992787FD9095E80FF91F37
:1010D00060832F5FFB2FEA2F208B203109F4108AC9
:1010E000FB2FEA2F90898189981739F4892F815035
:1010F000808B8F3F11F48FE0808B0895CF93DF9327
:10110000B92FA82FD92FC82F98898989981719F432
:101110008FEF9FEF16C0FB2FEA2F2189822F99278F
:1011200087FD9095E80FF91FE081822F8F5FDB2FFD
:10113000CA2F898B803109F4198A8E2F992787FD50
:101140009095DF91CF910895F92FE82F20E030E0BE
:1011500090898189981711F421E030E0932F822F34
:101160000895E62FF72F2E2F3F2FE8944230C4F03A
:101170004532B4F44A3029F497FB1EF490958195DA
:101180009F4F642F77276FD2805D8A330CF0895D83
:101190008193862F972F0097A1F716F45DE2519364
:1011A000932F822F10820BC0782F092E880F991F42
:1011B000880F991F870F901D880F991F0895A82FDA
:1011C000B92FE82FF92F01900020E9F73297AE17D9
:1011D000BF0730F47C916081708331976D93F7CFB6
:1011E0000895592F482F372F262F9FE380E8772720
:1011F0006627AED001D091C0552359F0992369F0EC
:101200009F575F57951B33F442F4903811F491586F
:1012100005C09BC091589F3F09F4B6C0BB2711245D
:1012200062177307840730F4660F771F881FBB1F90
:10123000915098F311D00F920FD00F920DD0A0E8DB
:101240002617370748071B0609F0A048BA2F602D5C
:101250007F918F9100240895A0E8002462177307FE
:101260008407B10528F0621B730B840BB1090A2AAD
:10127000660F771F881FBB1FA69581F7089597FB00
:1012800073D09F3738F0FEE9F91B982F872F762F00
:101290006B2F05C076C09695879577956795F15029
:1012A000D0F73EF490958095709561957F4F8F4F64
:1012B0009F4F0895E89403C097FB0EF4F3DFB62F19
:1012C000672F782F892F9EE9002427C00ED05EF06B
:1012D00004C00BD026F001C008D019F020F48FEF25
:1012E000089580E0089581E0089597FB092E052672
:1012F00000F8689430D0E89407FC07C062177307C1
:101300008407950721F008F40094079498940895B1
:101310009A95BB0F661F771F881F11249923A1F090
:101320008823B2F79F3F59F0BB0F48F421F4002007
:1013300011F460FF04C06F5F7F4F8F4F9F4F881F76
:101340009795879597F908951CC09FEF80EC0895B5
:10135000052E092607FA440F551F5F3F79F0AA278B
:10136000A51708F051E04795880F991F9F3F31F06E
:10137000BB27B91708F091E0879508959F919F9139
:10138000E4CF662777278827992708957727662748
:10139000B3D0C82FD92F7F936F939D2E8C2E099198
:1013A0000032E9F30930D9F30637C9F30C30B9F349
:1013B0000A30A9F30D3099F354D072D07EF07ADF61
:1013C00017FB97F9C92ED82EE72EF62E8827006234
:1013D000053661F4099145D04CD00EF42FC0992305
:1013E00019F017FD3CC035C017FD8195EAE1F0E02A
:1013F000182F9C2D8D2D7E2D6F2D9F779817870789
:1014000076076105D9F01A0D3AF411957896912F67
:101410009B19973224F504C0912F9B0D9732CCF481
:101420009C2D112359F0159538F46BD0EF93FF9351
:1014300079D0FF91EF91F5CF3496F3CFEF91FF91F3
:10144000E030EF0711F091928082ECE0CDB7DEB78B
:10145000F4C09C2D9F678FE77FEF6FEFEFCF91DF99
:10146000EDCF11270B3219F00D3211F410680991EC
:101470000895689486DF003394F019F4E89415FF1A
:101480000CC00A3364F41062992329F4E8948CDECA
:101490000F70800F911D9D2E8C2E0991ECCF089519
:1014A00068946FDFBB24BA94AA240E3221F416FD8F
:1014B00022C010641EC00033F4F019F4E89415FF44
:1014C00013C00A33C4F410629F308CF4B394E894D0
:1014D0005527442733272AE073D00F70600F711D02
:1014E000811D911D9D2E8C2E16FDAA9402C016FF03
:1014F000A3940991DACF0895AA27BB27FF91EF9112
:1015000080C0C895502D3196C895402D3196C8950C
:10151000302D3196C895202D31960895592F482F9A
:10152000372F262F15DF01D0F8CE992339F0552318
:1015300029F09F575F57950F13F4CAF125CF9158A3
:101540009F3FE1F3A62F00241124BB2766275527D0
:10155000F8E0A69520F4020E131EB41F651F220F9B
:10156000331F441F551FFA95A1F7F8E0E72F77279F
:10157000F8E0E69520F4130EB41F651F7A1F330FB1
:10158000441F551FAA1FFA95A1F7F82F8827F69533
:1015900020F4B40F651F7A1F8E1F440F551FAA1F1A
:1015A000EE1FFF23A1F788231AF4939539F4CDCECB
:1015B000000C111CBB1F661F771F881F0128089590
:1015C000FF27EE27BB27AA2760FF04C0A20FB31F87
:1015D000E41FF51F220F331F441F551F9695879553
:1015E0007795679589F70097760771F79F2F8E2F6C
:1015F0007B2F6A2F08952F923F924F925F926F92A6
:101600007F928F929F92AF92BF92CF92DF92EF9292
:10161000FF920F931F93CF93DF93CDB7DEB7CA1B13
:10162000DB0B0FB6F894DEBF0FBECDBF09942A883E
:10163000398848885F846E847D848C849B84AA84E6
:10164000B984C884DF80EE80FD800C811B81AA8173
:10165000B981CE0FD11D0FB6F894DEBF0FBECDBF3E
:10166000CA2FDB2F0895AA1BBB1B51E107C0AA1F7D
:10167000BB1FA617B70710F0A61BB70B881F991F33
:101680005A95A9F780959095682F792F8A2F9B2FCF
:021690000895BB
:10169200644156522D506C6F7474657220312E3035
:1016A20000312E4D6F746F722020322E4144432040
:1016B200200A332E4C447261772020342E506C6FF6
:1016C200740058203D200059203D2000506F73695E
:1016D20063696F3A005500440058203D20202020C5
:1016E2002059203D202020202000504320437472A6
:1016F2006C2052656D6F743A00436D643A2000505D
:10170200656E20557020200050656E20446F776E04
:0C171200004C696E69612020200064FF1B
:00000001FF
